:100000000C9434000C9436040C9451000C9470043D
:100010000C9451000C9451000C9451000C9451001C
:100020000C9451000C9451000C9451000C9451000C
:100030000C9451000C9451000C949E040C945100AB
:100040000C9451000C9451000C9451000C945100EC
:100050000C9451000C9451000C9451000C945100DC
:100060000C9451000C94510011241FBECFEFD8E026
:10007000DEBFCDBF11E0A0E0B1E0EEECF9E002C0E0
:1000800005900D92A635B107D9F721E0A6E5B1E0BC
:1000900001C01D92A936B207E1F70E94CD040C946D
:1000A000E5040C940000CF93DF93CDB7DEB784E274
:1000B00090E0FC01208184E290E02E60FC0120832E
:1000C00087E290E0FC01208187E290E02B63FC0155
:1000D000208388E290E0FC01208188E290E02260A9
:1000E000FC0120838AE290E0FC0120818AE290E01A
:1000F0002B7FFC0120838BE290E0FC0120818BE2CE
:1001000090E02460FC01208385E290E0FC012081E6
:1001100085E290E02160FC0120830000DF91CF9117
:100120000895CF93DF93CDB7DEB789E690E0FC0169
:10013000208189E690E02260FC0120838DE390E03D
:10014000FC0120818DE390E02160FC01208388E6A2
:1001500090E0FC01208188E690E02160FC01208392
:100160008BE690E0FC0120818BE690E02160FC01B1
:1001700020830000DF91CF910895CF93DF93CDB717
:10018000DEB786E890E02FE33CE9FC013183208371
:1001900080E890E022EAFC01208381E890E02AE1F7
:1001A000FC01208388E890E020ED37E0FC013183FA
:1001B00020838AE890E020EA3FE0FC01318320833D
:1001C0000000DF91CF910895CF93DF93CDB7DEB7D5
:1001D00080EB90E023EAFC01208381EB90E027E0B4
:1001E000FC01208383EB90E020E2FC0120830000EF
:1001F000DF91CF910895CF93DF93CDB7DEB784E43D
:1002000090E0FC01208184E490E02260FC012083E6
:1002100085E490E0FC01208185E490E02360FC010E
:10022000208387E490E029EFFC0120838EE690E0B4
:10023000FC0120818EE690E02260FC01208300001A
:10024000DF91CF910895CF93DF93CDB7DEB7809143
:100250005801882321F480915701882351F088E2C6
:1002600090E0FC01208188E290E02D7FFC0120835A
:1002700009C088E290E0FC01208188E290E02260E1
:10028000FC0120830000DF91CF910895CF93DF938D
:10029000CDB7DEB79091570181E08927882349F0D7
:1002A0009091580181E08927882319F081E090E03E
:1002B00002C080E090E0DF91CF910895CF93DF936B
:1002C000CDB7DEB7809156018F5F80935601809144
:1002D0005601833611F4109256010000DF91CF9140
:1002E0000895CF93DF93CDB7DEB780915C0188236B
:1002F00051F080915D01882331F00E945E011092DF
:100300005C0110925D010000DF91CF910895CF93C1
:10031000DF93CDB7DEB790915C0181E08927882318
:1003200009F446C088E890E0FC0180819181803A20
:100330009F4000F59091590181E089278823D1F0F1
:1003400088E890E0FC012081318188E890E02C5918
:100350003F4FFC013183208310925C0188E890E0DC
:10036000FC0180819181803A9F4011F581E080936A
:1003700059011EC0809159018823D1F088E890E08E
:10038000FC012081318188E890E024563109FC018C
:100390003183208388E890E0FC0180819181803D59
:1003A000974031F481E080935C011092590100C0C4
:1003B0000000DF91CF910895CF93DF93CDB7DEB7E3
:1003C00090915D0181E08927882309F444C08AE87F
:1003D00090E0FC0180819181813D9740F0F0909107
:1003E0005B0181E089278823C1F08AE890E0FC0165
:1003F000208131818AE890E024563109FC01318363
:1004000020838AE890E0FC0180819181803D9740C3
:1004100011F581E080935B011EC080915B01882310
:10042000D1F08AE890E0FC01208131818AE890E0F7
:100430002C593F4FFC01318320838AE890E0FC0176
:1004400080819181803A9F4031F410925B0181E07C
:1004500080935D0100C00000DF91CF910895CF939C
:10046000DF93CDB7DEB783EB90E0FC0180818F3066
:10047000C8F090915A0181E08927882399F083EB95
:1004800090E0FC01208183EB90E02250FC0120836E
:1004900083EB90E0FC0180818E30F1F481E0809369
:1004A0005A011AC080915A018823B1F083EB90E081
:1004B000FC01208183EB90E02E5FFC01208383EB25
:1004C00090E0FC018081803239F410925A01109240
:1004D00058010E94230100C00000DF91CF910895D0
:1004E000CF93DF93CDB7DEB780915E0190915F012E
:1004F000019690935F0180935E0120915E0130919F
:100500005F0180910001909101012817390751F492
:1005100010925F0110925E010E944601892B11F03A
:100520000E9487010000DF91CF910895CF93DF9360
:10053000CDB7DEB7809160019091610101969093F3
:10054000610180936001209160013091610180918F
:100550000201909103012817390751F410926101AB
:10056000109260010E944601892B11F00E94DC016B
:100570000000DF91CF910895CF93DF93CDB7DEB721
:100580008091620190916301019690936301809341
:100590006201209162013091630180910401909188
:1005A00005012817390751F4109263011092620176
:1005B00080915801882311F00E942F020000DF91E2
:1005C000CF910895CF93DF93CDB7DEB70E9470022D
:1005D0000E9496020E94BC020000DF91CF91089514
:1005E000CF93DF93CDB7DEB7809164019091650121
:1005F00001969093650180936401809164019091CC
:100600006501883B9B4021F41092650110926401C2
:100610000000DF91CF910895CF93DF93CDB7DEB780
:1006200088E290E0FC01308188E290E021E023271D
:10063000FC0120830000DF91CF910895CF93DF93D9
:1006400000D0CDB7DEB789836A838981882F90E097
:10065000092E000CAA0BBB0B8A309105A105B10530
:1006600008F073C0895C9C4FFC010C94DF044103CB
:100670004B0355035F03690373037D0387039103F2
:100680009B038A81882F90E08A5F9E4FFC018081C6
:10069000882F90E05CC08A81882F90E0825F9E4F17
:1006A000FC018081882F90E052C08A81882F90E0E1
:1006B0008A5E9E4FFC018081882F90E048C08A812D
:1006C000882F90E0825E9E4FFC018081882F90E011
:1006D0003EC08A81882F90E08A5D9E4FFC01808118
:1006E000882F90E034C08A81882F90E0825D9E4FF1
:1006F000FC018081882F90E02AC08A81882F90E0B9
:100700008A5C9E4FFC018081882F90E020C08A8106
:10071000882F90E0825C9E4FFC018081882F90E0C2
:1007200016C08A81882F90E08A5B9E4FFC018081F1
:10073000882F90E00CC08A81882F90E0825B9E4FCA
:10074000FC018081882F90E002C080E090E00F9053
:100750000F90DF91CF910895CF93DF93CDB7DEB7A0
:1007600030916601209156018DEC289F812D112436
:10077000982F969596959695892F880F880F890FB3
:10078000880F922F981B632F892F0E941E0380933E
:10079000670120916601909156018DEC989F812D03
:1007A0001124869586958695622F0E941E0380935C
:1007B000680188E290E0FC018081882F90E08170E0
:1007C0009927892B09F04CC080916701882351F04B
:1007D00088E290E0FC01208188E290E02860FC0142
:1007E000208309C088E290E0FC01208188E290E04B
:1007F000277FFC01208380916801882351F088E2E3
:1008000090E0FC01208188E290E02061FC012083DF
:1008100009C088E290E0FC01208188E290E02F7E10
:10082000FC012083809166018F5F80936601809137
:100830006601893061F488E290E0FC01208188E261
:1008400090E02062FC0120831092660109C088E2DA
:1008500090E0FC01208188E290E02F7DFC01208364
:100860000E940C030000DF91CF9108951F920F9218
:100870000FB60F9211242F933F934F935F936F9373
:100880007F938F939F93AF93BF93EF93FF93CF93F8
:10089000DF93CDB7DEB780915701882F90E021E03C
:1008A000892B09F420E081E08227882F90E0817075
:1008B000809357010E9423010000DF91CF91FF91A7
:1008C000EF91BF91AF919F918F917F916F915F91C8
:1008D0004F913F912F910F900FBE0F901F90189541
:1008E0001F920F920FB60F9211242F933F934F93A5
:1008F0005F936F937F938F939F93AF93BF93EF9388
:10090000FF93CF93DF93CDB7DEB781E0809358019B
:100910000E9423010000DF91CF91FF91EF91BF91E1
:10092000AF919F918F917F916F915F914F913F9187
:100930002F910F900FBE0F901F9018951F920F923E
:100940000FB60F9211242F933F934F935F936F93A2
:100950007F938F939F93AF93BF93EF93FF93CF9327
:10096000DF93CDB7DEB70E94E2020E94F0020E9440
:10097000AC030000DF91CF91FF91EF91BF91AF9158
:100980009F918F917F916F915F914F913F912F91A7
:100990000F900FBE0F901F901895CF93DF93CDB798
:1009A000DEB70E9453000E9491000E94BD000E9489
:1009B000E4000E94FB0078940E947101FDCFEE0FCD
:0E09C000FF1F0590F491E02D0994F894FFCFED
:1009CE0064006400640000000101010101010000E7
:1009DE000000000101000001000101000101000101
:1009EE0000000101010100010100000101000001F0
:1009FE0001000101000100010101010100010000DF
:100A0E0000000001010100010101010101010001CD
:060A1E00010001010101CD
:00000001FF
